{
  "contractName": "StakingContract",
  "abi": [
    {
      "inputs": [
        {
          "internalType": "address",
          "name": "tokenAddress",
          "type": "address"
        },
        {
          "internalType": "address",
          "name": "nftAddress",
          "type": "address"
        }
      ],
      "stateMutability": "nonpayable",
      "type": "constructor"
    },
    {
      "inputs": [
        {
          "internalType": "address",
          "name": "",
          "type": "address"
        }
      ],
      "name": "stakers",
      "outputs": [
        {
          "internalType": "uint256",
          "name": "amount",
          "type": "uint256"
        },
        {
          "internalType": "bool",
          "name": "isNFTReceived",
          "type": "bool"
        }
      ],
      "stateMutability": "view",
      "type": "function"
    },
    {
      "inputs": [
        {
          "internalType": "uint256",
          "name": "amount",
          "type": "uint256"
        }
      ],
      "name": "stakeTokens",
      "outputs": [],
      "stateMutability": "nonpayable",
      "type": "function"
    },
    {
      "inputs": [],
      "name": "receiveNFT",
      "outputs": [],
      "stateMutability": "nonpayable",
      "type": "function"
    },
    {
      "inputs": [],
      "name": "withdrawTokens",
      "outputs": [],
      "stateMutability": "nonpayable",
      "type": "function"
    }
  ],
  "bytecode": "0x608060405234801561000f575f80fd5b506040516109d33803806109d383398181016040528101906100319190610115565b815f806101000a81548173ffffffffffffffffffffffffffffffffffffffff021916908373ffffffffffffffffffffffffffffffffffffffff1602179055508060015f6101000a81548173ffffffffffffffffffffffffffffffffffffffff021916908373ffffffffffffffffffffffffffffffffffffffff1602179055505050610153565b5f80fd5b5f73ffffffffffffffffffffffffffffffffffffffff82169050919050565b5f6100e4826100bb565b9050919050565b6100f4816100da565b81146100fe575f80fd5b50565b5f8151905061010f816100eb565b92915050565b5f806040838503121561012b5761012a6100b7565b5b5f61013885828601610101565b925050602061014985828601610101565b9150509250929050565b610873806101605f395ff3fe608060405234801561000f575f80fd5b506004361061004a575f3560e01c8063076f64221461004e5780637547c7a3146100585780638d8f2adb146100745780639168ae721461007e575b5f80fd5b6100566100af565b005b610072600480360381019061006d919061051c565b61022b565b005b61007c61038b565b005b610098600480360381019061009391906105a1565b6104b9565b6040516100a69291906105f5565b60405180910390f35b5f60025f3373ffffffffffffffffffffffffffffffffffffffff1673ffffffffffffffffffffffffffffffffffffffff1681526020019081526020015f2090505f815f015411610134576040517f08c379a000000000000000000000000000000000000000000000000000000000815260040161012b90610676565b60405180910390fd5b806001015f9054906101000a900460ff1615610185576040517f08c379a000000000000000000000000000000000000000000000000000000000815260040161017c906106de565b60405180910390fd5b6001816001015f6101000a81548160ff02191690831515021790555060015f9054906101000a900473ffffffffffffffffffffffffffffffffffffffff1673ffffffffffffffffffffffffffffffffffffffff166340d097c3336040518263ffffffff1660e01b81526004016101fb919061070b565b5f604051808303815f87803b158015610212575f80fd5b505af1158015610224573d5f803e3d5ffd5b5050505050565b5f811161026d576040517f08c379a00000000000000000000000000000000000000000000000000000000081526004016102649061076e565b60405180910390fd5b5f8054906101000a900473ffffffffffffffffffffffffffffffffffffffff1673ffffffffffffffffffffffffffffffffffffffff166323b872dd3330846040518463ffffffff1660e01b81526004016102c99392919061078c565b6020604051808303815f875af11580156102e5573d5f803e3d5ffd5b505050506040513d601f19601f8201168201806040525081019061030991906107eb565b5060405180604001604052808281526020015f151581525060025f3373ffffffffffffffffffffffffffffffffffffffff1673ffffffffffffffffffffffffffffffffffffffff1681526020019081526020015f205f820151815f01556020820151816001015f6101000a81548160ff02191690831515021790555090505050565b5f60025f3373ffffffffffffffffffffffffffffffffffffffff1673ffffffffffffffffffffffffffffffffffffffff1681526020019081526020015f2090505f815f015411610410576040517f08c379a000000000000000000000000000000000000000000000000000000000815260040161040790610676565b60405180910390fd5b5f8054906101000a900473ffffffffffffffffffffffffffffffffffffffff1673ffffffffffffffffffffffffffffffffffffffff1663a9059cbb33835f01546040518363ffffffff1660e01b815260040161046d929190610816565b6020604051808303815f875af1158015610489573d5f803e3d5ffd5b505050506040513d601f19601f820116820180604052508101906104ad91906107eb565b505f815f018190555050565b6002602052805f5260405f205f91509050805f015490806001015f9054906101000a900460ff16905082565b5f80fd5b5f819050919050565b6104fb816104e9565b8114610505575f80fd5b50565b5f81359050610516816104f2565b92915050565b5f60208284031215610531576105306104e5565b5b5f61053e84828501610508565b91505092915050565b5f73ffffffffffffffffffffffffffffffffffffffff82169050919050565b5f61057082610547565b9050919050565b61058081610566565b811461058a575f80fd5b50565b5f8135905061059b81610577565b92915050565b5f602082840312156105b6576105b56104e5565b5b5f6105c38482850161058d565b91505092915050565b6105d5816104e9565b82525050565b5f8115159050919050565b6105ef816105db565b82525050565b5f6040820190506106085f8301856105cc565b61061560208301846105e6565b9392505050565b5f82825260208201905092915050565b7f4e6f20746f6b656e73207374616b6564000000000000000000000000000000005f82015250565b5f61066060108361061c565b915061066b8261062c565b602082019050919050565b5f6020820190508181035f83015261068d81610654565b9050919050565b7f4e465420616c72656164792072656365697665640000000000000000000000005f82015250565b5f6106c860148361061c565b91506106d382610694565b602082019050919050565b5f6020820190508181035f8301526106f5816106bc565b9050919050565b61070581610566565b82525050565b5f60208201905061071e5f8301846106fc565b92915050565b7f416d6f756e74206d7573742062652067726561746572207468616e207a65726f5f82015250565b5f61075860208361061c565b915061076382610724565b602082019050919050565b5f6020820190508181035f8301526107858161074c565b9050919050565b5f60608201905061079f5f8301866106fc565b6107ac60208301856106fc565b6107b960408301846105cc565b949350505050565b6107ca816105db565b81146107d4575f80fd5b50565b5f815190506107e5816107c1565b92915050565b5f60208284031215610800576107ff6104e5565b5b5f61080d848285016107d7565b91505092915050565b5f6040820190506108295f8301856106fc565b61083660208301846105cc565b939250505056fea26469706673582212203c2a9df8e052df88c2c60231386fd6e2e2d10e579ae921dc0317d00a174a838764736f6c63430008140033",
  "immutableReferences": {},
  "source": "// SPDX-License-Identifier: MIT\r\npragma solidity ^0.8.9;\r\n\r\nimport \"@openzeppelin/contracts/token/ERC721/ERC721.sol\";\r\nimport \"@openzeppelin/contracts/token/ERC20/ERC20.sol\";\r\nimport \"@openzeppelin/contracts/access/Ownable.sol\";\r\nimport \"@openzeppelin/contracts/utils/Counters.sol\";\r\n\r\nimport \"./LuniverseNFT.sol\";\r\nimport \"./LuniverseTokens.sol\";\r\n\r\n\r\n\r\n\r\ncontract StakingContract {\r\n    LuniverseToken private token;\r\n    LuniverseNFT private nft;\r\n\r\n    struct Stake {\r\n        uint256 amount;\r\n        bool isNFTReceived;\r\n    }\r\n\r\n    mapping(address => Stake) public stakers;\r\n\r\n    constructor(address tokenAddress, address nftAddress) {\r\n        token = LuniverseToken(tokenAddress);\r\n        nft = LuniverseNFT(nftAddress);\r\n    }\r\n\r\n    function stakeTokens(uint256 amount) external {\r\n        require(amount > 0, \"Amount must be greater than zero\");\r\n        token.transferFrom(msg.sender, address(this), amount);\r\n        stakers[msg.sender] = Stake(amount, false);\r\n    }\r\n\r\n    function receiveNFT() external {\r\n        Stake storage staker = stakers[msg.sender];\r\n        require(staker.amount > 0, \"No tokens staked\");\r\n        require(!staker.isNFTReceived, \"NFT already received\");\r\n        staker.isNFTReceived = true;\r\n        nft.safeMint(msg.sender);\r\n    }\r\n\r\n    function withdrawTokens() external {\r\n        Stake storage staker = stakers[msg.sender];\r\n        require(staker.amount > 0, \"No tokens staked\");\r\n        token.transfer(msg.sender, staker.amount);\r\n        staker.amount = 0;\r\n    }\r\n}\r\n",
  "sourcePath": "C:\\Users\\vedsu\\OneDrive\\Desktop\\BlockchainDevelopment\\Luniverse\\contracts\\Bank.sol",
  "compiler": {
    "name": "solc",
    "version": "0.8.20+commit.a1b79de6.Emscripten.clang"
  },
  "schemaVersion": "3.4.13",
  "updatedAt": "2023-05-12T12:15:09.453Z",
  "devdoc": {
    "kind": "dev",
    "methods": {},
    "version": 1
  },
  "userdoc": {
    "kind": "user",
    "methods": {},
    "version": 1
  }
}