{
  "_format": "hh-sol-artifact-1",
  "contractName": "LuniverseNFT",
  "sourceName": "contracts/LuniverseNFT.sol",
  "abi": [
    {
      "inputs": [],
      "stateMutability": "nonpayable",
      "type": "constructor"
    },
    {
      "anonymous": false,
      "inputs": [
        {
          "indexed": true,
          "internalType": "address",
          "name": "owner",
          "type": "address"
        },
        {
          "indexed": true,
          "internalType": "address",
          "name": "approved",
          "type": "address"
        },
        {
          "indexed": true,
          "internalType": "uint256",
          "name": "tokenId",
          "type": "uint256"
        }
      ],
      "name": "Approval",
      "type": "event"
    },
    {
      "anonymous": false,
      "inputs": [
        {
          "indexed": true,
          "internalType": "address",
          "name": "owner",
          "type": "address"
        },
        {
          "indexed": true,
          "internalType": "address",
          "name": "operator",
          "type": "address"
        },
        {
          "indexed": false,
          "internalType": "bool",
          "name": "approved",
          "type": "bool"
        }
      ],
      "name": "ApprovalForAll",
      "type": "event"
    },
    {
      "anonymous": false,
      "inputs": [
        {
          "indexed": true,
          "internalType": "address",
          "name": "previousOwner",
          "type": "address"
        },
        {
          "indexed": true,
          "internalType": "address",
          "name": "newOwner",
          "type": "address"
        }
      ],
      "name": "OwnershipTransferred",
      "type": "event"
    },
    {
      "anonymous": false,
      "inputs": [
        {
          "indexed": true,
          "internalType": "address",
          "name": "from",
          "type": "address"
        },
        {
          "indexed": true,
          "internalType": "address",
          "name": "to",
          "type": "address"
        },
        {
          "indexed": true,
          "internalType": "uint256",
          "name": "tokenId",
          "type": "uint256"
        }
      ],
      "name": "Transfer",
      "type": "event"
    },
    {
      "inputs": [
        {
          "internalType": "address",
          "name": "to",
          "type": "address"
        },
        {
          "internalType": "uint256",
          "name": "tokenId",
          "type": "uint256"
        }
      ],
      "name": "approve",
      "outputs": [],
      "stateMutability": "nonpayable",
      "type": "function"
    },
    {
      "inputs": [
        {
          "internalType": "address",
          "name": "owner",
          "type": "address"
        }
      ],
      "name": "balanceOf",
      "outputs": [
        {
          "internalType": "uint256",
          "name": "",
          "type": "uint256"
        }
      ],
      "stateMutability": "view",
      "type": "function"
    },
    {
      "inputs": [
        {
          "internalType": "uint256",
          "name": "tokenId",
          "type": "uint256"
        }
      ],
      "name": "getApproved",
      "outputs": [
        {
          "internalType": "address",
          "name": "",
          "type": "address"
        }
      ],
      "stateMutability": "view",
      "type": "function"
    },
    {
      "inputs": [],
      "name": "getCurrentTokenId",
      "outputs": [
        {
          "internalType": "uint256",
          "name": "",
          "type": "uint256"
        }
      ],
      "stateMutability": "view",
      "type": "function"
    },
    {
      "inputs": [
        {
          "internalType": "address",
          "name": "owner",
          "type": "address"
        },
        {
          "internalType": "address",
          "name": "operator",
          "type": "address"
        }
      ],
      "name": "isApprovedForAll",
      "outputs": [
        {
          "internalType": "bool",
          "name": "",
          "type": "bool"
        }
      ],
      "stateMutability": "view",
      "type": "function"
    },
    {
      "inputs": [],
      "name": "name",
      "outputs": [
        {
          "internalType": "string",
          "name": "",
          "type": "string"
        }
      ],
      "stateMutability": "view",
      "type": "function"
    },
    {
      "inputs": [],
      "name": "owner",
      "outputs": [
        {
          "internalType": "address",
          "name": "",
          "type": "address"
        }
      ],
      "stateMutability": "view",
      "type": "function"
    },
    {
      "inputs": [
        {
          "internalType": "uint256",
          "name": "tokenId",
          "type": "uint256"
        }
      ],
      "name": "ownerOf",
      "outputs": [
        {
          "internalType": "address",
          "name": "",
          "type": "address"
        }
      ],
      "stateMutability": "view",
      "type": "function"
    },
    {
      "inputs": [],
      "name": "renounceOwnership",
      "outputs": [],
      "stateMutability": "nonpayable",
      "type": "function"
    },
    {
      "inputs": [
        {
          "internalType": "address",
          "name": "to",
          "type": "address"
        }
      ],
      "name": "safeMint",
      "outputs": [],
      "stateMutability": "nonpayable",
      "type": "function"
    },
    {
      "inputs": [
        {
          "internalType": "address",
          "name": "from",
          "type": "address"
        },
        {
          "internalType": "address",
          "name": "to",
          "type": "address"
        },
        {
          "internalType": "uint256",
          "name": "tokenId",
          "type": "uint256"
        }
      ],
      "name": "safeTransferFrom",
      "outputs": [],
      "stateMutability": "nonpayable",
      "type": "function"
    },
    {
      "inputs": [
        {
          "internalType": "address",
          "name": "from",
          "type": "address"
        },
        {
          "internalType": "address",
          "name": "to",
          "type": "address"
        },
        {
          "internalType": "uint256",
          "name": "tokenId",
          "type": "uint256"
        },
        {
          "internalType": "bytes",
          "name": "data",
          "type": "bytes"
        }
      ],
      "name": "safeTransferFrom",
      "outputs": [],
      "stateMutability": "nonpayable",
      "type": "function"
    },
    {
      "inputs": [
        {
          "internalType": "address",
          "name": "operator",
          "type": "address"
        },
        {
          "internalType": "bool",
          "name": "approved",
          "type": "bool"
        }
      ],
      "name": "setApprovalForAll",
      "outputs": [],
      "stateMutability": "nonpayable",
      "type": "function"
    },
    {
      "inputs": [
        {
          "internalType": "bytes4",
          "name": "interfaceId",
          "type": "bytes4"
        }
      ],
      "name": "supportsInterface",
      "outputs": [
        {
          "internalType": "bool",
          "name": "",
          "type": "bool"
        }
      ],
      "stateMutability": "view",
      "type": "function"
    },
    {
      "inputs": [],
      "name": "symbol",
      "outputs": [
        {
          "internalType": "string",
          "name": "",
          "type": "string"
        }
      ],
      "stateMutability": "view",
      "type": "function"
    },
    {
      "inputs": [
        {
          "internalType": "uint256",
          "name": "tokenId",
          "type": "uint256"
        }
      ],
      "name": "tokenURI",
      "outputs": [
        {
          "internalType": "string",
          "name": "",
          "type": "string"
        }
      ],
      "stateMutability": "view",
      "type": "function"
    },
    {
      "inputs": [
        {
          "internalType": "address",
          "name": "from",
          "type": "address"
        },
        {
          "internalType": "address",
          "name": "to",
          "type": "address"
        },
        {
          "internalType": "uint256",
          "name": "tokenId",
          "type": "uint256"
        }
      ],
      "name": "transferFrom",
      "outputs": [],
      "stateMutability": "nonpayable",
      "type": "function"
    },
    {
      "inputs": [
        {
          "internalType": "address",
          "name": "newOwner",
          "type": "address"
        }
      ],
      "name": "transferOwnership",
      "outputs": [],
      "stateMutability": "nonpayable",
      "type": "function"
    }
  ],
  "bytecode": "0x60806040523480156200001157600080fd5b506040518060400160405280600c81526020017f4c756e6976657273654e465400000000000000000000000000000000000000008152506040518060400160405280600481526020017f4c4e46540000000000000000000000000000000000000000000000000000000081525081600090816200008f919062000412565b508060019081620000a1919062000412565b505050620000c4620000b8620000ca60201b60201c565b620000d260201b60201c565b620004f9565b600033905090565b6000600660009054906101000a900473ffffffffffffffffffffffffffffffffffffffff16905081600660006101000a81548173ffffffffffffffffffffffffffffffffffffffff021916908373ffffffffffffffffffffffffffffffffffffffff1602179055508173ffffffffffffffffffffffffffffffffffffffff168173ffffffffffffffffffffffffffffffffffffffff167f8be0079c531659141344cd1fd0a4f28419497f9722a3daafe3b4186f6b6457e060405160405180910390a35050565b600081519050919050565b7f4e487b7100000000000000000000000000000000000000000000000000000000600052604160045260246000fd5b7f4e487b7100000000000000000000000000000000000000000000000000000000600052602260045260246000fd5b600060028204905060018216806200021a57607f821691505b60208210810362000230576200022f620001d2565b5b50919050565b60008190508160005260206000209050919050565b60006020601f8301049050919050565b600082821b905092915050565b6000600883026200029a7fffffffffffffffffffffffffffffffffffffffffffffffffffffffffffffffff826200025b565b620002a686836200025b565b95508019841693508086168417925050509392505050565b6000819050919050565b6000819050919050565b6000620002f3620002ed620002e784620002be565b620002c8565b620002be565b9050919050565b6000819050919050565b6200030f83620002d2565b620003276200031e82620002fa565b84845462000268565b825550505050565b600090565b6200033e6200032f565b6200034b81848462000304565b505050565b5b8181101562000373576200036760008262000334565b60018101905062000351565b5050565b601f821115620003c2576200038c8162000236565b62000397846200024b565b81016020851015620003a7578190505b620003bf620003b6856200024b565b83018262000350565b50505b505050565b600082821c905092915050565b6000620003e760001984600802620003c7565b1980831691505092915050565b6000620004028383620003d4565b9150826002028217905092915050565b6200041d8262000198565b67ffffffffffffffff811115620004395762000438620001a3565b5b62000445825462000201565b6200045282828562000377565b600060209050601f8311600181146200048a576000841562000475578287015190505b620004818582620003f4565b865550620004f1565b601f1984166200049a8662000236565b60005b82811015620004c4578489015182556001820191506020850194506020810190506200049d565b86831015620004e45784890151620004e0601f891682620003d4565b8355505b6001600288020188555050505b505050505050565b6129ba80620005096000396000f3fe608060405234801561001057600080fd5b50600436106101165760003560e01c806370a08231116100a2578063a22cb46511610071578063a22cb465146102cd578063b88d4fde146102e9578063c87b56dd14610305578063e985e9c514610335578063f2fde38b1461036557610116565b806370a0823114610257578063715018a6146102875780638da5cb5b1461029157806395d89b41146102af57610116565b806323b872dd116100e957806323b872dd146101b557806340d097c3146101d157806342842e0e146101ed57806356189236146102095780636352211e1461022757610116565b806301ffc9a71461011b57806306fdde031461014b578063081812fc14610169578063095ea7b314610199575b600080fd5b61013560048036038101906101309190611ac3565b610381565b6040516101429190611b0b565b60405180910390f35b610153610463565b6040516101609190611bb6565b60405180910390f35b610183600480360381019061017e9190611c0e565b6104f5565b6040516101909190611c7c565b60405180910390f35b6101b360048036038101906101ae9190611cc3565b61053b565b005b6101cf60048036038101906101ca9190611d03565b610652565b005b6101eb60048036038101906101e69190611d56565b6106b2565b005b61020760048036038101906102029190611d03565b6106e0565b005b610211610700565b60405161021e9190611d92565b60405180910390f35b610241600480360381019061023c9190611c0e565b61071d565b60405161024e9190611c7c565b60405180910390f35b610271600480360381019061026c9190611d56565b6107a3565b60405161027e9190611d92565b60405180910390f35b61028f61085a565b005b61029961086e565b6040516102a69190611c7c565b60405180910390f35b6102b7610898565b6040516102c49190611bb6565b60405180910390f35b6102e760048036038101906102e29190611dd9565b61092a565b005b61030360048036038101906102fe9190611f4e565b610940565b005b61031f600480360381019061031a9190611c0e565b6109a2565b60405161032c9190611bb6565b60405180910390f35b61034f600480360381019061034a9190611fd1565b610a0a565b60405161035c9190611b0b565b60405180910390f35b61037f600480360381019061037a9190611d56565b610a9e565b005b60007f80ac58cd000000000000000000000000000000000000000000000000000000007bffffffffffffffffffffffffffffffffffffffffffffffffffffffff1916827bffffffffffffffffffffffffffffffffffffffffffffffffffffffff1916148061044c57507f5b5e139f000000000000000000000000000000000000000000000000000000007bffffffffffffffffffffffffffffffffffffffffffffffffffffffff1916827bffffffffffffffffffffffffffffffffffffffffffffffffffffffff1916145b8061045c575061045b82610b21565b5b9050919050565b60606000805461047290612040565b80601f016020809104026020016040519081016040528092919081815260200182805461049e90612040565b80156104eb5780601f106104c0576101008083540402835291602001916104eb565b820191906000526020600020905b8154815290600101906020018083116104ce57829003601f168201915b5050505050905090565b600061050082610b8b565b6004600083815260200190815260200160002060009054906101000a900473ffffffffffffffffffffffffffffffffffffffff169050919050565b60006105468261071d565b90508073ffffffffffffffffffffffffffffffffffffffff168373ffffffffffffffffffffffffffffffffffffffff16036105b6576040517f08c379a00000000000000000000000000000000000000000000000000000000081526004016105ad906120e3565b60405180910390fd5b8073ffffffffffffffffffffffffffffffffffffffff166105d5610bd6565b73ffffffffffffffffffffffffffffffffffffffff1614806106045750610603816105fe610bd6565b610a0a565b5b610643576040517f08c379a000000000000000000000000000000000000000000000000000000000815260040161063a90612175565b60405180910390fd5b61064d8383610bde565b505050565b61066361065d610bd6565b82610c97565b6106a2576040517f08c379a000000000000000000000000000000000000000000000000000000000815260040161069990612207565b60405180910390fd5b6106ad838383610d2c565b505050565b6106ba611025565b60006106c660076110a3565b90506106d260076110b1565b6106dc82826110c7565b5050565b6106fb83838360405180602001604052806000815250610940565b505050565b6000600161070e60076110a3565b6107189190612256565b905090565b600080610729836110e5565b9050600073ffffffffffffffffffffffffffffffffffffffff168173ffffffffffffffffffffffffffffffffffffffff160361079a576040517f08c379a0000000000000000000000000000000000000000000000000000000008152600401610791906122d6565b60405180910390fd5b80915050919050565b60008073ffffffffffffffffffffffffffffffffffffffff168273ffffffffffffffffffffffffffffffffffffffff1603610813576040517f08c379a000000000000000000000000000000000000000000000000000000000815260040161080a90612368565b60405180910390fd5b600360008373ffffffffffffffffffffffffffffffffffffffff1673ffffffffffffffffffffffffffffffffffffffff168152602001908152602001600020549050919050565b610862611025565b61086c6000611122565b565b6000600660009054906101000a900473ffffffffffffffffffffffffffffffffffffffff16905090565b6060600180546108a790612040565b80601f01602080910402602001604051908101604052809291908181526020018280546108d390612040565b80156109205780601f106108f557610100808354040283529160200191610920565b820191906000526020600020905b81548152906001019060200180831161090357829003601f168201915b5050505050905090565b61093c610935610bd6565b83836111e8565b5050565b61095161094b610bd6565b83610c97565b610990576040517f08c379a0000000000000000000000000000000000000000000000000000000008152600401610987906123fa565b60405180910390fd5b61099c84848484611354565b50505050565b60606109ad82610b8b565b60006109b76113b0565b905060008151116109d75760405180602001604052806000815250610a02565b806109e1846113c7565b6040516020016109f2929190612456565b6040516020818303038152906040525b915050919050565b6000600560008473ffffffffffffffffffffffffffffffffffffffff1673ffffffffffffffffffffffffffffffffffffffff16815260200190815260200160002060008373ffffffffffffffffffffffffffffffffffffffff1673ffffffffffffffffffffffffffffffffffffffff16815260200190815260200160002060009054906101000a900460ff16905092915050565b610aa6611025565b600073ffffffffffffffffffffffffffffffffffffffff168173ffffffffffffffffffffffffffffffffffffffff1603610b15576040517f08c379a0000000000000000000000000000000000000000000000000000000008152600401610b0c906124ec565b60405180910390fd5b610b1e81611122565b50565b60007f01ffc9a7000000000000000000000000000000000000000000000000000000007bffffffffffffffffffffffffffffffffffffffffffffffffffffffff1916827bffffffffffffffffffffffffffffffffffffffffffffffffffffffff1916149050919050565b610b9481611495565b610bd3576040517f08c379a0000000000000000000000000000000000000000000000000000000008152600401610bca906122d6565b60405180910390fd5b50565b600033905090565b816004600083815260200190815260200160002060006101000a81548173ffffffffffffffffffffffffffffffffffffffff021916908373ffffffffffffffffffffffffffffffffffffffff160217905550808273ffffffffffffffffffffffffffffffffffffffff16610c518361071d565b73ffffffffffffffffffffffffffffffffffffffff167f8c5be1e5ebec7d5bd14f71427d1e84f3dd0314c0f7b2291e5b200ac8c7c3b92560405160405180910390a45050565b600080610ca38361071d565b90508073ffffffffffffffffffffffffffffffffffffffff168473ffffffffffffffffffffffffffffffffffffffff161480610ce55750610ce48185610a0a565b5b80610d2357508373ffffffffffffffffffffffffffffffffffffffff16610d0b846104f5565b73ffffffffffffffffffffffffffffffffffffffff16145b91505092915050565b8273ffffffffffffffffffffffffffffffffffffffff16610d4c8261071d565b73ffffffffffffffffffffffffffffffffffffffff1614610da2576040517f08c379a0000000000000000000000000000000000000000000000000000000008152600401610d999061257e565b60405180910390fd5b600073ffffffffffffffffffffffffffffffffffffffff168273ffffffffffffffffffffffffffffffffffffffff1603610e11576040517f08c379a0000000000000000000000000000000000000000000000000000000008152600401610e0890612610565b60405180910390fd5b610e1e83838360016114d6565b8273ffffffffffffffffffffffffffffffffffffffff16610e3e8261071d565b73ffffffffffffffffffffffffffffffffffffffff1614610e94576040517f08c379a0000000000000000000000000000000000000000000000000000000008152600401610e8b9061257e565b60405180910390fd5b6004600082815260200190815260200160002060006101000a81549073ffffffffffffffffffffffffffffffffffffffff02191690556001600360008573ffffffffffffffffffffffffffffffffffffffff1673ffffffffffffffffffffffffffffffffffffffff168152602001908152602001600020600082825403925050819055506001600360008473ffffffffffffffffffffffffffffffffffffffff1673ffffffffffffffffffffffffffffffffffffffff16815260200190815260200160002060008282540192505081905550816002600083815260200190815260200160002060006101000a81548173ffffffffffffffffffffffffffffffffffffffff021916908373ffffffffffffffffffffffffffffffffffffffff160217905550808273ffffffffffffffffffffffffffffffffffffffff168473ffffffffffffffffffffffffffffffffffffffff167fddf252ad1be2c89b69c2b068fc378daa952ba7f163c4a11628f55a4df523b3ef60405160405180910390a461102083838360016114dc565b505050565b61102d610bd6565b73ffffffffffffffffffffffffffffffffffffffff1661104b61086e565b73ffffffffffffffffffffffffffffffffffffffff16146110a1576040517f08c379a00000000000000000000000000000000000000000000000000000000081526004016110989061267c565b60405180910390fd5b565b600081600001549050919050565b6001816000016000828254019250508190555050565b6110e18282604051806020016040528060008152506114e2565b5050565b60006002600083815260200190815260200160002060009054906101000a900473ffffffffffffffffffffffffffffffffffffffff169050919050565b6000600660009054906101000a900473ffffffffffffffffffffffffffffffffffffffff16905081600660006101000a81548173ffffffffffffffffffffffffffffffffffffffff021916908373ffffffffffffffffffffffffffffffffffffffff1602179055508173ffffffffffffffffffffffffffffffffffffffff168173ffffffffffffffffffffffffffffffffffffffff167f8be0079c531659141344cd1fd0a4f28419497f9722a3daafe3b4186f6b6457e060405160405180910390a35050565b8173ffffffffffffffffffffffffffffffffffffffff168373ffffffffffffffffffffffffffffffffffffffff1603611256576040517f08c379a000000000000000000000000000000000000000000000000000000000815260040161124d906126e8565b60405180910390fd5b80600560008573ffffffffffffffffffffffffffffffffffffffff1673ffffffffffffffffffffffffffffffffffffffff16815260200190815260200160002060008473ffffffffffffffffffffffffffffffffffffffff1673ffffffffffffffffffffffffffffffffffffffff16815260200190815260200160002060006101000a81548160ff0219169083151502179055508173ffffffffffffffffffffffffffffffffffffffff168373ffffffffffffffffffffffffffffffffffffffff167f17307eab39ab6107e8899845ad3d59bd9653f200f220920489ca2b5937696c31836040516113479190611b0b565b60405180910390a3505050565b61135f848484610d2c565b61136b8484848461153d565b6113aa576040517f08c379a00000000000000000000000000000000000000000000000000000000081526004016113a19061277a565b60405180910390fd5b50505050565b606060405180602001604052806000815250905090565b6060600060016113d6846116c4565b01905060008167ffffffffffffffff8111156113f5576113f4611e23565b5b6040519080825280601f01601f1916602001820160405280156114275781602001600182028036833780820191505090505b509050600082602001820190505b60011561148a578080600190039150507f3031323334353637383961626364656600000000000000000000000000000000600a86061a8153600a858161147e5761147d61279a565b5b04945060008503611435575b819350505050919050565b60008073ffffffffffffffffffffffffffffffffffffffff166114b7836110e5565b73ffffffffffffffffffffffffffffffffffffffff1614159050919050565b50505050565b50505050565b6114ec8383611817565b6114f9600084848461153d565b611538576040517f08c379a000000000000000000000000000000000000000000000000000000000815260040161152f9061277a565b60405180910390fd5b505050565b600061155e8473ffffffffffffffffffffffffffffffffffffffff16611a34565b156116b7578373ffffffffffffffffffffffffffffffffffffffff1663150b7a02611587610bd6565b8786866040518563ffffffff1660e01b81526004016115a9949392919061281e565b6020604051808303816000875af19250505080156115e557506040513d601f19601f820116820180604052508101906115e2919061287f565b60015b611667573d8060008114611615576040519150601f19603f3d011682016040523d82523d6000602084013e61161a565b606091505b50600081510361165f576040517f08c379a00000000000000000000000000000000000000000000000000000000081526004016116569061277a565b60405180910390fd5b805181602001fd5b63150b7a0260e01b7bffffffffffffffffffffffffffffffffffffffffffffffffffffffff1916817bffffffffffffffffffffffffffffffffffffffffffffffffffffffff1916149150506116bc565b600190505b949350505050565b600080600090507a184f03e93ff9f4daa797ed6e38ed64bf6a1f0100000000000000008310611722577a184f03e93ff9f4daa797ed6e38ed64bf6a1f01000000000000000083816117185761171761279a565b5b0492506040810190505b6d04ee2d6d415b85acef8100000000831061175f576d04ee2d6d415b85acef810000000083816117555761175461279a565b5b0492506020810190505b662386f26fc10000831061178e57662386f26fc1000083816117845761178361279a565b5b0492506010810190505b6305f5e10083106117b7576305f5e10083816117ad576117ac61279a565b5b0492506008810190505b61271083106117dc5761271083816117d2576117d161279a565b5b0492506004810190505b606483106117ff57606483816117f5576117f461279a565b5b0492506002810190505b600a831061180e576001810190505b80915050919050565b600073ffffffffffffffffffffffffffffffffffffffff168273ffffffffffffffffffffffffffffffffffffffff1603611886576040517f08c379a000000000000000000000000000000000000000000000000000000000815260040161187d906128f8565b60405180910390fd5b61188f81611495565b156118cf576040517f08c379a00000000000000000000000000000000000000000000000000000000081526004016118c690612964565b60405180910390fd5b6118dd6000838360016114d6565b6118e681611495565b15611926576040517f08c379a000000000000000000000000000000000000000000000000000000000815260040161191d90612964565b60405180910390fd5b6001600360008473ffffffffffffffffffffffffffffffffffffffff1673ffffffffffffffffffffffffffffffffffffffff16815260200190815260200160002060008282540192505081905550816002600083815260200190815260200160002060006101000a81548173ffffffffffffffffffffffffffffffffffffffff021916908373ffffffffffffffffffffffffffffffffffffffff160217905550808273ffffffffffffffffffffffffffffffffffffffff16600073ffffffffffffffffffffffffffffffffffffffff167fddf252ad1be2c89b69c2b068fc378daa952ba7f163c4a11628f55a4df523b3ef60405160405180910390a4611a306000838360016114dc565b5050565b6000808273ffffffffffffffffffffffffffffffffffffffff163b119050919050565b6000604051905090565b600080fd5b600080fd5b60007fffffffff0000000000000000000000000000000000000000000000000000000082169050919050565b611aa081611a6b565b8114611aab57600080fd5b50565b600081359050611abd81611a97565b92915050565b600060208284031215611ad957611ad8611a61565b5b6000611ae784828501611aae565b91505092915050565b60008115159050919050565b611b0581611af0565b82525050565b6000602082019050611b206000830184611afc565b92915050565b600081519050919050565b600082825260208201905092915050565b60005b83811015611b60578082015181840152602081019050611b45565b60008484015250505050565b6000601f19601f8301169050919050565b6000611b8882611b26565b611b928185611b31565b9350611ba2818560208601611b42565b611bab81611b6c565b840191505092915050565b60006020820190508181036000830152611bd08184611b7d565b905092915050565b6000819050919050565b611beb81611bd8565b8114611bf657600080fd5b50565b600081359050611c0881611be2565b92915050565b600060208284031215611c2457611c23611a61565b5b6000611c3284828501611bf9565b91505092915050565b600073ffffffffffffffffffffffffffffffffffffffff82169050919050565b6000611c6682611c3b565b9050919050565b611c7681611c5b565b82525050565b6000602082019050611c916000830184611c6d565b92915050565b611ca081611c5b565b8114611cab57600080fd5b50565b600081359050611cbd81611c97565b92915050565b60008060408385031215611cda57611cd9611a61565b5b6000611ce885828601611cae565b9250506020611cf985828601611bf9565b9150509250929050565b600080600060608486031215611d1c57611d1b611a61565b5b6000611d2a86828701611cae565b9350506020611d3b86828701611cae565b9250506040611d4c86828701611bf9565b9150509250925092565b600060208284031215611d6c57611d6b611a61565b5b6000611d7a84828501611cae565b91505092915050565b611d8c81611bd8565b82525050565b6000602082019050611da76000830184611d83565b92915050565b611db681611af0565b8114611dc157600080fd5b50565b600081359050611dd381611dad565b92915050565b60008060408385031215611df057611def611a61565b5b6000611dfe85828601611cae565b9250506020611e0f85828601611dc4565b9150509250929050565b600080fd5b600080fd5b7f4e487b7100000000000000000000000000000000000000000000000000000000600052604160045260246000fd5b611e5b82611b6c565b810181811067ffffffffffffffff82111715611e7a57611e79611e23565b5b80604052505050565b6000611e8d611a57565b9050611e998282611e52565b919050565b600067ffffffffffffffff821115611eb957611eb8611e23565b5b611ec282611b6c565b9050602081019050919050565b82818337600083830152505050565b6000611ef1611eec84611e9e565b611e83565b905082815260208101848484011115611f0d57611f0c611e1e565b5b611f18848285611ecf565b509392505050565b600082601f830112611f3557611f34611e19565b5b8135611f45848260208601611ede565b91505092915050565b60008060008060808587031215611f6857611f67611a61565b5b6000611f7687828801611cae565b9450506020611f8787828801611cae565b9350506040611f9887828801611bf9565b925050606085013567ffffffffffffffff811115611fb957611fb8611a66565b5b611fc587828801611f20565b91505092959194509250565b60008060408385031215611fe857611fe7611a61565b5b6000611ff685828601611cae565b925050602061200785828601611cae565b9150509250929050565b7f4e487b7100000000000000000000000000000000000000000000000000000000600052602260045260246000fd5b6000600282049050600182168061205857607f821691505b60208210810361206b5761206a612011565b5b50919050565b7f4552433732313a20617070726f76616c20746f2063757272656e74206f776e6560008201527f7200000000000000000000000000000000000000000000000000000000000000602082015250565b60006120cd602183611b31565b91506120d882612071565b604082019050919050565b600060208201905081810360008301526120fc816120c0565b9050919050565b7f4552433732313a20617070726f76652063616c6c6572206973206e6f7420746f60008201527f6b656e206f776e6572206f7220617070726f76656420666f7220616c6c000000602082015250565b600061215f603d83611b31565b915061216a82612103565b604082019050919050565b6000602082019050818103600083015261218e81612152565b9050919050565b7f4c756e6976657273654e46543a207472616e736665722063616c6c657220697360008201527f206e6f74206f776e6572206e6f7220617070726f766564000000000000000000602082015250565b60006121f1603783611b31565b91506121fc82612195565b604082019050919050565b60006020820190508181036000830152612220816121e4565b9050919050565b7f4e487b7100000000000000000000000000000000000000000000000000000000600052601160045260246000fd5b600061226182611bd8565b915061226c83611bd8565b925082820390508181111561228457612283612227565b5b92915050565b7f4552433732313a20696e76616c696420746f6b656e2049440000000000000000600082015250565b60006122c0601883611b31565b91506122cb8261228a565b602082019050919050565b600060208201905081810360008301526122ef816122b3565b9050919050565b7f4552433732313a2061646472657373207a65726f206973206e6f74206120766160008201527f6c6964206f776e65720000000000000000000000000000000000000000000000602082015250565b6000612352602983611b31565b915061235d826122f6565b604082019050919050565b6000602082019050818103600083015261238181612345565b9050919050565b7f4552433732313a2063616c6c6572206973206e6f7420746f6b656e206f776e6560008201527f72206f7220617070726f76656400000000000000000000000000000000000000602082015250565b60006123e4602d83611b31565b91506123ef82612388565b604082019050919050565b60006020820190508181036000830152612413816123d7565b9050919050565b600081905092915050565b600061243082611b26565b61243a818561241a565b935061244a818560208601611b42565b80840191505092915050565b60006124628285612425565b915061246e8284612425565b91508190509392505050565b7f4f776e61626c653a206e6577206f776e657220697320746865207a65726f206160008201527f6464726573730000000000000000000000000000000000000000000000000000602082015250565b60006124d6602683611b31565b91506124e18261247a565b604082019050919050565b60006020820190508181036000830152612505816124c9565b9050919050565b7f4552433732313a207472616e736665722066726f6d20696e636f72726563742060008201527f6f776e6572000000000000000000000000000000000000000000000000000000602082015250565b6000612568602583611b31565b91506125738261250c565b604082019050919050565b600060208201905081810360008301526125978161255b565b9050919050565b7f4552433732313a207472616e7366657220746f20746865207a65726f2061646460008201527f7265737300000000000000000000000000000000000000000000000000000000602082015250565b60006125fa602483611b31565b91506126058261259e565b604082019050919050565b60006020820190508181036000830152612629816125ed565b9050919050565b7f4f776e61626c653a2063616c6c6572206973206e6f7420746865206f776e6572600082015250565b6000612666602083611b31565b915061267182612630565b602082019050919050565b6000602082019050818103600083015261269581612659565b9050919050565b7f4552433732313a20617070726f766520746f2063616c6c657200000000000000600082015250565b60006126d2601983611b31565b91506126dd8261269c565b602082019050919050565b60006020820190508181036000830152612701816126c5565b9050919050565b7f4552433732313a207472616e7366657220746f206e6f6e20455243373231526560008201527f63656976657220696d706c656d656e7465720000000000000000000000000000602082015250565b6000612764603283611b31565b915061276f82612708565b604082019050919050565b6000602082019050818103600083015261279381612757565b9050919050565b7f4e487b7100000000000000000000000000000000000000000000000000000000600052601260045260246000fd5b600081519050919050565b600082825260208201905092915050565b60006127f0826127c9565b6127fa81856127d4565b935061280a818560208601611b42565b61281381611b6c565b840191505092915050565b60006080820190506128336000830187611c6d565b6128406020830186611c6d565b61284d6040830185611d83565b818103606083015261285f81846127e5565b905095945050505050565b60008151905061287981611a97565b92915050565b60006020828403121561289557612894611a61565b5b60006128a38482850161286a565b91505092915050565b7f4552433732313a206d696e7420746f20746865207a65726f2061646472657373600082015250565b60006128e2602083611b31565b91506128ed826128ac565b602082019050919050565b60006020820190508181036000830152612911816128d5565b9050919050565b7f4552433732313a20746f6b656e20616c7265616479206d696e74656400000000600082015250565b600061294e601c83611b31565b915061295982612918565b602082019050919050565b6000602082019050818103600083015261297d81612941565b905091905056fea26469706673582212207c1f13acde293fce6b319afcbda49ce910e85a37bec7174536ae075bf7ea52cc64736f6c63430008120033",
  "linkReferences": {},
  "deployedLinkReferences": {}
}