{
  "_format": "hh-sol-artifact-1",
  "contractName": "StakingContract",
  "sourceName": "contracts/StakingContract.sol",
  "abi": [
    {
      "inputs": [
        {
          "internalType": "address",
          "name": "tokenAddress",
          "type": "address"
        },
        {
          "internalType": "address",
          "name": "nftAddress",
          "type": "address"
        }
      ],
      "stateMutability": "nonpayable",
      "type": "constructor"
    },
    {
      "inputs": [],
      "name": "receiveNFT",
      "outputs": [],
      "stateMutability": "nonpayable",
      "type": "function"
    },
    {
      "inputs": [
        {
          "internalType": "uint256",
          "name": "amount",
          "type": "uint256"
        }
      ],
      "name": "stakeTokens",
      "outputs": [],
      "stateMutability": "nonpayable",
      "type": "function"
    },
    {
      "inputs": [
        {
          "internalType": "address",
          "name": "",
          "type": "address"
        }
      ],
      "name": "stakers",
      "outputs": [
        {
          "internalType": "uint256",
          "name": "amount",
          "type": "uint256"
        },
        {
          "internalType": "bool",
          "name": "isNFTReceived",
          "type": "bool"
        }
      ],
      "stateMutability": "view",
      "type": "function"
    },
    {
      "inputs": [],
      "name": "withdrawTokens",
      "outputs": [],
      "stateMutability": "nonpayable",
      "type": "function"
    }
  ],
  "bytecode": "0x608060405234801561001057600080fd5b50604051610a31380380610a318339818101604052810190610032919061011d565b816000806101000a81548173ffffffffffffffffffffffffffffffffffffffff021916908373ffffffffffffffffffffffffffffffffffffffff16021790555080600160006101000a81548173ffffffffffffffffffffffffffffffffffffffff021916908373ffffffffffffffffffffffffffffffffffffffff160217905550505061015d565b600080fd5b600073ffffffffffffffffffffffffffffffffffffffff82169050919050565b60006100ea826100bf565b9050919050565b6100fa816100df565b811461010557600080fd5b50565b600081519050610117816100f1565b92915050565b60008060408385031215610134576101336100ba565b5b600061014285828601610108565b925050602061015385828601610108565b9150509250929050565b6108c58061016c6000396000f3fe608060405234801561001057600080fd5b506004361061004c5760003560e01c8063076f6422146100515780637547c7a31461005b5780638d8f2adb146100775780639168ae7214610081575b600080fd5b6100596100b2565b005b6100756004803603810190610070919061054c565b61023b565b005b61007f6103a6565b005b61009b600480360381019061009691906105d7565b6104e0565b6040516100a992919061062e565b60405180910390f35b6000600260003373ffffffffffffffffffffffffffffffffffffffff1673ffffffffffffffffffffffffffffffffffffffff1681526020019081526020016000209050600081600001541161013c576040517f08c379a0000000000000000000000000000000000000000000000000000000008152600401610133906106b4565b60405180910390fd5b8060010160009054906101000a900460ff161561018e576040517f08c379a000000000000000000000000000000000000000000000000000000000815260040161018590610720565b60405180910390fd5b60018160010160006101000a81548160ff021916908315150217905550600160009054906101000a900473ffffffffffffffffffffffffffffffffffffffff1673ffffffffffffffffffffffffffffffffffffffff166340d097c3336040518263ffffffff1660e01b8152600401610206919061074f565b600060405180830381600087803b15801561022057600080fd5b505af1158015610234573d6000803e3d6000fd5b5050505050565b6000811161027e576040517f08c379a0000000000000000000000000000000000000000000000000000000008152600401610275906107b6565b60405180910390fd5b60008054906101000a900473ffffffffffffffffffffffffffffffffffffffff1673ffffffffffffffffffffffffffffffffffffffff166323b872dd3330846040518463ffffffff1660e01b81526004016102db939291906107d6565b6020604051808303816000875af11580156102fa573d6000803e3d6000fd5b505050506040513d601f19601f8201168201806040525081019061031e9190610839565b50604051806040016040528082815260200160001515815250600260003373ffffffffffffffffffffffffffffffffffffffff1673ffffffffffffffffffffffffffffffffffffffff1681526020019081526020016000206000820151816000015560208201518160010160006101000a81548160ff02191690831515021790555090505050565b6000600260003373ffffffffffffffffffffffffffffffffffffffff1673ffffffffffffffffffffffffffffffffffffffff16815260200190815260200160002090506000816000015411610430576040517f08c379a0000000000000000000000000000000000000000000000000000000008152600401610427906106b4565b60405180910390fd5b60008054906101000a900473ffffffffffffffffffffffffffffffffffffffff1673ffffffffffffffffffffffffffffffffffffffff1663a9059cbb3383600001546040518363ffffffff1660e01b815260040161048f929190610866565b6020604051808303816000875af11580156104ae573d6000803e3d6000fd5b505050506040513d601f19601f820116820180604052508101906104d29190610839565b506000816000018190555050565b60026020528060005260406000206000915090508060000154908060010160009054906101000a900460ff16905082565b600080fd5b6000819050919050565b61052981610516565b811461053457600080fd5b50565b60008135905061054681610520565b92915050565b60006020828403121561056257610561610511565b5b600061057084828501610537565b91505092915050565b600073ffffffffffffffffffffffffffffffffffffffff82169050919050565b60006105a482610579565b9050919050565b6105b481610599565b81146105bf57600080fd5b50565b6000813590506105d1816105ab565b92915050565b6000602082840312156105ed576105ec610511565b5b60006105fb848285016105c2565b91505092915050565b61060d81610516565b82525050565b60008115159050919050565b61062881610613565b82525050565b60006040820190506106436000830185610604565b610650602083018461061f565b9392505050565b600082825260208201905092915050565b7f4e6f20746f6b656e73207374616b656400000000000000000000000000000000600082015250565b600061069e601083610657565b91506106a982610668565b602082019050919050565b600060208201905081810360008301526106cd81610691565b9050919050565b7f4e465420616c7265616479207265636569766564000000000000000000000000600082015250565b600061070a601483610657565b9150610715826106d4565b602082019050919050565b60006020820190508181036000830152610739816106fd565b9050919050565b61074981610599565b82525050565b60006020820190506107646000830184610740565b92915050565b7f416d6f756e74206d7573742062652067726561746572207468616e207a65726f600082015250565b60006107a0602083610657565b91506107ab8261076a565b602082019050919050565b600060208201905081810360008301526107cf81610793565b9050919050565b60006060820190506107eb6000830186610740565b6107f86020830185610740565b6108056040830184610604565b949350505050565b61081681610613565b811461082157600080fd5b50565b6000815190506108338161080d565b92915050565b60006020828403121561084f5761084e610511565b5b600061085d84828501610824565b91505092915050565b600060408201905061087b6000830185610740565b6108886020830184610604565b939250505056fea26469706673582212203f3a87ca2785f61e8e780b83ccc95fca5c0af719dd35b5260a52ee6b6145077964736f6c63430008120033",
  "linkReferences": {},
  "deployedLinkReferences": {}
}